{
  "_format": "hh-sol-artifact-1",
  "contractName": "RedEnvelope",
  "sourceName": "CONTRACTS/GiftBox.sol",
  "abi": [
    {
      "anonymous": false,
      "inputs": [
        {
          "indexed": false,
          "internalType": "uint256",
          "name": "id",
          "type": "uint256"
        }
      ],
      "name": "EnvelopeCreated",
      "type": "event"
    },
    {
      "inputs": [
        {
          "internalType": "uint256",
          "name": "_id",
          "type": "uint256"
        }
      ],
      "name": "addToEnvelope",
      "outputs": [],
      "stateMutability": "payable",
      "type": "function"
    },
    {
      "inputs": [
        {
          "internalType": "uint256",
          "name": "_id",
          "type": "uint256"
        }
      ],
      "name": "claim",
      "outputs": [
        {
          "internalType": "uint256",
          "name": "",
          "type": "uint256"
        }
      ],
      "stateMutability": "nonpayable",
      "type": "function"
    },
    {
      "inputs": [
        {
          "internalType": "uint256",
          "name": "_timeLimitInSeconds",
          "type": "uint256"
        },
        {
          "internalType": "address",
          "name": "_token",
          "type": "address"
        }
      ],
      "name": "createEnvelope",
      "outputs": [
        {
          "internalType": "uint256",
          "name": "",
          "type": "uint256"
        }
      ],
      "stateMutability": "payable",
      "type": "function"
    },
    {
      "inputs": [
        {
          "internalType": "uint256",
          "name": "",
          "type": "uint256"
        }
      ],
      "name": "envelopes",
      "outputs": [
        {
          "internalType": "uint256",
          "name": "amount",
          "type": "uint256"
        },
        {
          "internalType": "uint256",
          "name": "creationTime",
          "type": "uint256"
        },
        {
          "internalType": "uint256",
          "name": "timeLimit",
          "type": "uint256"
        },
        {
          "internalType": "address",
          "name": "creator",
          "type": "address"
        },
        {
          "internalType": "address",
          "name": "token",
          "type": "address"
        }
      ],
      "stateMutability": "view",
      "type": "function"
    },
    {
      "inputs": [],
      "name": "getHistory",
      "outputs": [
        {
          "internalType": "uint256[]",
          "name": "",
          "type": "uint256[]"
        }
      ],
      "stateMutability": "view",
      "type": "function"
    },
    {
      "inputs": [
        {
          "internalType": "uint256",
          "name": "_id",
          "type": "uint256"
        }
      ],
      "name": "getRemainingAmount",
      "outputs": [
        {
          "internalType": "uint256",
          "name": "",
          "type": "uint256"
        }
      ],
      "stateMutability": "view",
      "type": "function"
    },
    {
      "inputs": [
        {
          "internalType": "uint256",
          "name": "_id",
          "type": "uint256"
        }
      ],
      "name": "getTimeLeft",
      "outputs": [
        {
          "internalType": "uint256",
          "name": "",
          "type": "uint256"
        }
      ],
      "stateMutability": "view",
      "type": "function"
    },
    {
      "inputs": [
        {
          "internalType": "address",
          "name": "",
          "type": "address"
        },
        {
          "internalType": "uint256",
          "name": "",
          "type": "uint256"
        }
      ],
      "name": "history",
      "outputs": [
        {
          "internalType": "uint256",
          "name": "",
          "type": "uint256"
        }
      ],
      "stateMutability": "view",
      "type": "function"
    },
    {
      "inputs": [
        {
          "internalType": "uint256",
          "name": "_id",
          "type": "uint256"
        }
      ],
      "name": "isInvalidID",
      "outputs": [
        {
          "internalType": "bool",
          "name": "",
          "type": "bool"
        }
      ],
      "stateMutability": "view",
      "type": "function"
    },
    {
      "inputs": [
        {
          "internalType": "uint256",
          "name": "_id",
          "type": "uint256"
        }
      ],
      "name": "reclaim",
      "outputs": [],
      "stateMutability": "nonpayable",
      "type": "function"
    }
  ],
  "bytecode": "0x608060405234801561001057600080fd5b506118f8806100206000396000f3fe6080604052600436106100915760003560e01c8063aa15efc811610059578063aa15efc8146101aa578063c8e3ce4f146101d5578063d784b0bd146101f1578063e8c587631461022e578063f6252ff21461026b57610091565b80631df95786146100965780632dabbeed146100d7578063379607f5146101005780637718f4ec1461013d578063946f1a571461017a575b600080fd5b3480156100a257600080fd5b506100bd60048036038101906100b89190610f5c565b6102a8565b6040516100ce959493929190610fd9565b60405180910390f35b3480156100e357600080fd5b506100fe60048036038101906100f99190610f5c565b61031e565b005b34801561010c57600080fd5b5061012760048036038101906101229190610f5c565b610567565b604051610134919061102c565b60405180910390f35b34801561014957600080fd5b50610164600480360381019061015f9190611073565b610959565b604051610171919061102c565b60405180910390f35b610194600480360381019061018f91906110b3565b61098a565b6040516101a1919061102c565b60405180910390f35b3480156101b657600080fd5b506101bf610bae565b6040516101cc91906111b1565b60405180910390f35b6101ef60048036038101906101ea9190610f5c565b610c43565b005b3480156101fd57600080fd5b5061021860048036038101906102139190610f5c565b610d49565b60405161022591906111ee565b60405180910390f35b34801561023a57600080fd5b5061025560048036038101906102509190610f5c565b610db6565b604051610262919061102c565b60405180910390f35b34801561027757600080fd5b50610292600480360381019061028d9190610f5c565b610e7b565b60405161029f919061102c565b60405180910390f35b60006020528060005260406000206000915090508060000154908060010154908060020154908060030160009054906101000a900473ffffffffffffffffffffffffffffffffffffffff16908060040160009054906101000a900473ffffffffffffffffffffffffffffffffffffffff16905085565b61032781610d49565b15610367576040517f08c379a000000000000000000000000000000000000000000000000000000000815260040161035e90611266565b60405180910390fd5b60008082815260200190815260200160002060030160009054906101000a900473ffffffffffffffffffffffffffffffffffffffff1673ffffffffffffffffffffffffffffffffffffffff163373ffffffffffffffffffffffffffffffffffffffff161461040a576040517f08c379a0000000000000000000000000000000000000000000000000000000008152600401610401906112d2565b60405180910390fd5b60008082815260200190815260200160002060020154600080838152602001908152602001600020600101546104409190611321565b4211610481576040517f08c379a0000000000000000000000000000000000000000000000000000000008152600401610478906113a1565b60405180910390fd5b600080600083815260200190815260200160002060000154905060008060008481526020019081526020016000206000018190555060003373ffffffffffffffffffffffffffffffffffffffff16826040516104dc906113f2565b60006040518083038185875af1925050503d8060008114610519576040519150601f19603f3d011682016040523d82523d6000602084013e61051e565b606091505b5050905080610562576040517f08c379a000000000000000000000000000000000000000000000000000000000815260040161055990611453565b60405180910390fd5b505050565b600061057282610d49565b156105b2576040517f08c379a00000000000000000000000000000000000000000000000000000000081526004016105a990611266565b60405180910390fd5b60006105bd83610db6565b116105fd576040517f08c379a00000000000000000000000000000000000000000000000000000000081526004016105f4906114bf565b60405180910390fd5b60008060008481526020019081526020016000206000015411610655576040517f08c379a000000000000000000000000000000000000000000000000000000000815260040161064c9061152b565b60405180910390fd5b60008083815260200190815260200160002060050160003373ffffffffffffffffffffffffffffffffffffffff1673ffffffffffffffffffffffffffffffffffffffff16815260200190815260200160002060009054906101000a900460ff16156106f5576040517f08c379a00000000000000000000000000000000000000000000000000000000081526004016106ec90611597565b60405180910390fd5b600073ffffffffffffffffffffffffffffffffffffffff1660008084815260200190815260200160002060040160009054906101000a900473ffffffffffffffffffffffffffffffffffffffff1673ffffffffffffffffffffffffffffffffffffffff161461085057600080600084815260200190815260200160002060040160009054906101000a900473ffffffffffffffffffffffffffffffffffffffff1673ffffffffffffffffffffffffffffffffffffffff166370a08231336040518263ffffffff1660e01b81526004016107ce91906115b7565b602060405180830381865afa1580156107eb573d6000803e3d6000fd5b505050506040513d601f19601f8201168201806040525081019061080f91906115e7565b1161084f576040517f08c379a000000000000000000000000000000000000000000000000000000000815260040161084690611686565b60405180910390fd5b5b600061087060008085815260200190815260200160002060000154610ee3565b905080600080858152602001908152602001600020600001600082825461089791906116a6565b92505081905550600160008085815260200190815260200160002060050160003373ffffffffffffffffffffffffffffffffffffffff1673ffffffffffffffffffffffffffffffffffffffff16815260200190815260200160002060006101000a81548160ff0219169083151502179055503373ffffffffffffffffffffffffffffffffffffffff166108fc829081150290604051600060405180830381858888f1935050505015801561094f573d6000803e3d6000fd5b5080915050919050565b6001602052816000526040600020818154811061097557600080fd5b90600052602060002001600091509150505481565b60008034116109ce576040517f08c379a00000000000000000000000000000000000000000000000000000000081526004016109c590611726565b60405180910390fd5b6000670de0b6b3a764000042336040516020016109ec9291906117af565b6040516020818303038152906040528051906020012060001c610a0f919061180a565b90503460008083815260200190815260200160002060000181905550426000808381526020019081526020016000206001018190555083600080838152602001908152602001600020600201819055503360008083815260200190815260200160002060030160006101000a81548173ffffffffffffffffffffffffffffffffffffffff021916908373ffffffffffffffffffffffffffffffffffffffff1602179055508260008083815260200190815260200160002060040160006101000a81548173ffffffffffffffffffffffffffffffffffffffff021916908373ffffffffffffffffffffffffffffffffffffffff1602179055507fa2c9ae418586e3150d1fbe1b84a7acf85ae2706bf6e037968ea35e26c09531da81604051610b36919061102c565b60405180910390a1600160003373ffffffffffffffffffffffffffffffffffffffff1673ffffffffffffffffffffffffffffffffffffffff1681526020019081526020016000208190806001815401808255809150506001900390600052602060002001600090919091909150558091505092915050565b6060600160003373ffffffffffffffffffffffffffffffffffffffff1673ffffffffffffffffffffffffffffffffffffffff168152602001908152602001600020805480602002602001604051908101604052809291908181526020018280548015610c3957602002820191906000526020600020905b815481526020019060010190808311610c25575b5050505050905090565b610c4c81610d49565b15610c8c576040517f08c379a0000000000000000000000000000000000000000000000000000000008152600401610c8390611266565b60405180910390fd5b60003411610ccf576040517f08c379a0000000000000000000000000000000000000000000000000000000008152600401610cc690611726565b60405180910390fd5b6000610cda82610db6565b11610d1a576040517f08c379a0000000000000000000000000000000000000000000000000000000008152600401610d1190611887565b60405180910390fd5b346000808381526020019081526020016000206000016000828254610d3f9190611321565b9250508190555050565b60008073ffffffffffffffffffffffffffffffffffffffff1660008084815260200190815260200160002060030160009054906101000a900473ffffffffffffffffffffffffffffffffffffffff1673ffffffffffffffffffffffffffffffffffffffff16149050919050565b6000610dc182610d49565b15610e01576040517f08c379a0000000000000000000000000000000000000000000000000000000008152600401610df890611266565b60405180910390fd5b6000429050600080600085815260200190815260200160002060010154905060008060008681526020019081526020016000206002015490508082610e469190611321565b831115610e595760009350505050610e76565b828183610e669190611321565b610e7091906116a6565b93505050505b919050565b6000610e8682610d49565b15610ec6576040517f08c379a0000000000000000000000000000000000000000000000000000000008152600401610ebd90611266565b60405180910390fd5b600080838152602001908152602001600020600001549050919050565b60008142604051602001610ef791906118a7565b6040516020818303038152906040528051906020012060001c610f1a919061180a565b9050919050565b600080fd5b6000819050919050565b610f3981610f26565b8114610f4457600080fd5b50565b600081359050610f5681610f30565b92915050565b600060208284031215610f7257610f71610f21565b5b6000610f8084828501610f47565b91505092915050565b610f9281610f26565b82525050565b600073ffffffffffffffffffffffffffffffffffffffff82169050919050565b6000610fc382610f98565b9050919050565b610fd381610fb8565b82525050565b600060a082019050610fee6000830188610f89565b610ffb6020830187610f89565b6110086040830186610f89565b6110156060830185610fca565b6110226080830184610fca565b9695505050505050565b60006020820190506110416000830184610f89565b92915050565b61105081610fb8565b811461105b57600080fd5b50565b60008135905061106d81611047565b92915050565b6000806040838503121561108a57611089610f21565b5b60006110988582860161105e565b92505060206110a985828601610f47565b9150509250929050565b600080604083850312156110ca576110c9610f21565b5b60006110d885828601610f47565b92505060206110e98582860161105e565b9150509250929050565b600081519050919050565b600082825260208201905092915050565b6000819050602082019050919050565b61112881610f26565b82525050565b600061113a838361111f565b60208301905092915050565b6000602082019050919050565b600061115e826110f3565b61116881856110fe565b93506111738361110f565b8060005b838110156111a457815161118b888261112e565b975061119683611146565b925050600181019050611177565b5085935050505092915050565b600060208201905081810360008301526111cb8184611153565b905092915050565b60008115159050919050565b6111e8816111d3565b82525050565b600060208201905061120360008301846111df565b92915050565b600082825260208201905092915050565b7f496e76616c696420494400000000000000000000000000000000000000000000600082015250565b6000611250600a83611209565b915061125b8261121a565b602082019050919050565b6000602082019050818103600083015261127f81611243565b9050919050565b7f4f6e6c79207468652063726561746f722063616e207265636c61696d00000000600082015250565b60006112bc601c83611209565b91506112c782611286565b602082019050919050565b600060208201905081810360008301526112eb816112af565b9050919050565b7f4e487b7100000000000000000000000000000000000000000000000000000000600052601160045260246000fd5b600061132c82610f26565b915061133783610f26565b925082820190508082111561134f5761134e6112f2565b5b92915050565b7f43616e6e6f74207265636c61696d206265666f72652074696d65206c696d6974600082015250565b600061138b602083611209565b915061139682611355565b602082019050919050565b600060208201905081810360008301526113ba8161137e565b9050919050565b600081905092915050565b50565b60006113dc6000836113c1565b91506113e7826113cc565b600082019050919050565b60006113fd826113cf565b9150819050919050565b7f4661696c656420746f2073656e64204574686572000000000000000000000000600082015250565b600061143d601483611209565b915061144882611407565b602082019050919050565b6000602082019050818103600083015261146c81611430565b9050919050565b7f54696d65206c696d697420657863656564656400000000000000000000000000600082015250565b60006114a9601383611209565b91506114b482611473565b602082019050919050565b600060208201905081810360008301526114d88161149c565b9050919050565b7f4e6f2066756e647320617661696c61626c650000000000000000000000000000600082015250565b6000611515601283611209565b9150611520826114df565b602082019050919050565b6000602082019050818103600083015261154481611508565b9050919050565b7f416c726561647920636c61696d65640000000000000000000000000000000000600082015250565b6000611581600f83611209565b915061158c8261154b565b602082019050919050565b600060208201905081810360008301526115b081611574565b9050919050565b60006020820190506115cc6000830184610fca565b92915050565b6000815190506115e181610f30565b92915050565b6000602082840312156115fd576115fc610f21565b5b600061160b848285016115d2565b91505092915050565b7f4d757374206f776e207468652073706563696669656420746f6b656e20746f2060008201527f636c61696d000000000000000000000000000000000000000000000000000000602082015250565b6000611670602583611209565b915061167b82611614565b604082019050919050565b6000602082019050818103600083015261169f81611663565b9050919050565b60006116b182610f26565b91506116bc83610f26565b92508282039050818111156116d4576116d36112f2565b5b92915050565b7f416d6f756e742073686f756c642062652067726561746572207468616e203000600082015250565b6000611710601f83611209565b915061171b826116da565b602082019050919050565b6000602082019050818103600083015261173f81611703565b9050919050565b6000819050919050565b61176161175c82610f26565b611746565b82525050565b60008160601b9050919050565b600061177f82611767565b9050919050565b600061179182611774565b9050919050565b6117a96117a482610fb8565b611786565b82525050565b60006117bb8285611750565b6020820191506117cb8284611798565b6014820191508190509392505050565b7f4e487b7100000000000000000000000000000000000000000000000000000000600052601260045260246000fd5b600061181582610f26565b915061182083610f26565b9250826118305761182f6117db565b5b828206905092915050565b7f456e76656c6f7065206861732065787069726564000000000000000000000000600082015250565b6000611871601483611209565b915061187c8261183b565b602082019050919050565b600060208201905081810360008301526118a081611864565b9050919050565b60006118b38284611750565b6020820191508190509291505056fea2646970667358221220a14eb8a0e28ec7416c254322d41053249bcfad4fae2db23b48d99d0e0c2299e464736f6c63430008140033",
  "linkReferences": {},
  "deployedLinkReferences": {}
}